:100000000C9434000C9446000C9446000C9446006A
:100010000C946F000C9446000C9446000C9446001F
:100020000C9446000C9446000C9446000C94460038
:100030000C9446000C9446000C9446000C94460028
:100040000C9446000C9446000C9446000C94460018
:100050000C9446000C9449000C9446000C94460005
:100060000C9446000C94460011241FBECFEFD4E040
:10007000DEBFCDBF21E0A0E0B1E001C01D92A23003
:10008000B207E1F70E94BB000C942F010C94000012
:1000900008951F920F920FB60F9211242F933F9342
:1000A0004F935F936F937F938F939F93AF93BF9380
:1000B000EF93FF93809178000E944800FF91EF91A9
:1000C000BF91AF919F918F917F916F915F914F9170
:1000D0003F912F910F900FBE0F901F9018951F9278
:1000E0000F920FB60F9211242F933F934F935F936C
:1000F0006F937F938F939F93AF93BF93EF93FF93F0
:1001000083ED90E30197F1F700C00000339B11C02D
:100110000E942B018230910539F00497D9F481E0D7
:1001200090E00E940E0116C083E090E00E940E0154
:1001300011C086B18D7F71F080910001853150F042
:100140000E942B01019731F41092000182E090E0AF
:100150000E940E01FF91EF91BF91AF919F918F91FE
:100160007F916F915F914F913F912F910F900FBEB3
:100170000F901F901895ECE7F0E0808184608083F9
:100180008EEE80937A00EBE7F0E08081808384B587
:10019000836884BD85B58B6085BD85E087B98FEFA9
:1001A0008AB98BB9E8E6F0E0808182608083ECE672
:1001B000F0E080818A60808384E090E00E940E01FC
:1001C0007894C1E0DFEF11E080910101813011F0FE
:1001D0008330D1F7DBB98BB19C2F909589238BB9F4
:1001E000CC0FC93008F0C12F83E294EF0197F1F7EB
:1001F00000C00000809100018F5F80930001319961
:10020000E3CF8B3008F30E942B010397E9F610929D
:10021000000184E090E00E940E01D6CF809301019E
:100220008230910569F01CF4019739F0089583300C
:10023000910551F0049751F00895429A409A08951B
:100240008BB1807F8BB908954098089542988BB107
:100250008F608BB908958091010190E00895F89422
:02026000FFCFCE
:00000001FF
