S0160000526574726F5069652D42617369632E73726563D5
S11300000C9434000C9449000C9449000C9449005D
S11300100C9449000C9449000C9449000C94490038
S11300200C9449000C9449000C9449000C94490028
S11300300C9449000C9449000C9449000C94490018
S11300400C9449000C9449000C9449000C94490008
S11300500C9449000C9449000C9449000C944900F8
S11300600C9449000C94490011241FBECFEFD4E036
S1130070DEBFCDBF11E0A0E0B1E0EEE3F1E002C0ED
S113008005900D92A030B107D9F70E944B000C9453
S11300909D000C94000085E087B98FEF8AB98BB975
S11300A030E040E0242F61E050E071E0842F09C08B
S11300B08F5FE7E8F3E13197F1F700C0000001C07A
S11300C0822F3399F5CF90E00397D4F3313061F464
S11300D042988BB18F608BB98FE493EC0197F1F761
S11300E000C00000342FE2CF429A862F952F01C022
S11300F001963BB13F603BB981309105A1F0E7EA3D
S1130100F1E63197F1F700C000003BB1307F3BB915
S1130110E7EAF1E63197F1F700C000008530910578
S11301203CF3372FC3CF3BB1307F3BB9E7EAF1E66D
S11101303197F1F700C00000DBCFF894FFCF49
S9030000FC
