S0160000526574726F5069652D42617369632E73726563D5
S11300000C9434000C9449000C9449000C9449005D
S11300100C9449000C9449000C9449000C94490038
S11300200C9449000C9449000C9449000C94490028
S11300300C9449000C9449000C9449000C94490018
S11300400C9449000C9449000C9449000C94490008
S11300500C9449000C9449000C9449000C944900F8
S11300600C9449000C94490011241FBECFEFD4E036
S1130070DEBFCDBF11E0A0E0B1E0E6E5F1E002C0F3
S113008005900D92A030B107D9F70E944B000C9453
S1130090A9000C94000085E087B98FEF8AB98BB969
S11300A030E040E0242F71E060E051E0842F09C08B
S11300B08F5FEFE0F7E23197F1F700C0000001C075
S11300C0822F3399F5CF90E00397D4F3313079F44C
S11300D042988BB18F608BB9FFE936E881E0F1502B
S11300E030408040E1F700C00000342FDFCF429A57
S11300F0872F962F01C001963BB13F603BB98130F9
S11301009105E9F0E7EAF1E63197F1F700C0000064
S11301103BB1307F3BB9E7EAF1E63197F1F700C034
S11301200000853091053CF3FFE936E881E0F150A9
S113013030408040E1F700C00000352FB7CF3BB11D
S1130140307F3BB9E7EAF1E63197F1F700C00000F0
S1090150D2CFF894FFCFAA
S9030000FC
